S00C00004C6162342E73726563D5
S11300000C9434000C9451000C9451000C94510045
S11300100C9451000C9451000C9451000C94510018
S11300200C9451000C9451000C9451000C94510008
S11300300C9451000C9451000C9451000C945100F8
S11300400C9451000C9451000C9451000C945100E8
S11300500C9451000C9451000C9451000C945100D8
S11300600C9451000C94510011241FBECFEFD8E022
S1130070DEBFCDBF11E0A0E0B1E0EEE6F5E002C0E6
S113008005900D92AA30B107D9F721E0AAE0B1E0BA
S113009001C01D92A431B207E1F70E94FD010C9446
S11300A0B5020C940000CF93C62F27B12F7C27B93B
S11300B0643079F018F4613031F023C0603191F08C
S11300C06034C9F01EC0E9EBF0E020812C7F20836E
S11300D01EC0E9EBF0E020812D7F20832081216088
S11300E0208315C0E9EBF0E020812E7F208320815E
S11300F0226020830CC0E9EBF0E0208123602083A0
S113010006C0E9EBF0E020812C7F2083C1E09C0154
S113011040E050E060E074E284EF90E00E9460020E
S1130120CA01B90160517109810991092C2F30E08C
S1130130220F331F032E000C440B550B0E94600248
S11301402093B800ECEBF0E0808184608083CF9151
S1130150089584EA8093BC008091BC008823E4F76E
S11301608091B90081E0089584E98093BC00809176
S1130170BC0084FDFCCF08958093BB0084E8809389
S1130180BC008091BC008823E4F78091B900887F8B
S1130190883131F0883231F0803429F481E00895D7
S11301A081E0089581E00895DC01662331F0ECEBF1
S11301B0F0E090819064908305C0ECEBF0E09081D6
S11301C09F7B9083ECEBF0E090819068908390911A
S11301D0BC009923E4F79091B900987F983511F009
S11301E0903529F48091BB008C9381E00895892F88
S11301F0089580FF04C09BB190619BB903C09BB17B
S11302009F7E9BB981FF04C09BB190629BB903C0E0
S11302109BB19F7D9BB982FF04C09BB190649BB945
S113022003C09BB19F7B9BB983FF04C08BB18068E3
S11302308BB908958BB18F778BB9089598B19E7F50
S113024098B90E94F90088B1826088B98FE79EE36B
S11302500197F1F700C0000088B18D7F88B9089537
S11302608AB1806F8AB987B1836087B91BB880E08F
S11302700E94F9002FEF89EF90E0215080409040D8
S1130280E1F700C0000083E00E941E018FE19EE4BC
S11302900197F1F700C0000083E00E941E018FED7A
S11302A09BEA0197F1F700C0000083E00E941E0161
S11302B082E00E941E0182E00E941E0188E00E94EA
S11302C01E0180E00E941E018CE00E941E0180E05D
S11302D00E941E0186E00E941E0180E00E941E0111
S11302E081E00E941E010895CF93C82FCF7091E042
S11302F098B982958F700E94F90088B1826088B99C
S11303008FE79EE30197F1F700C0000088B18D7F6D
S113031088B98C2F0E94F90088B1826088B98FE770
S11303209EE30197F1F700C0000088B18D7F88B982
S1130330CF9108950F931F93CF93DF938C01C0E067
S1130340D0E003C00E9474012196F801EC0FFD1F58
S113035080818111F7CFDF91CF911F910F91089583
S1130360CF93613059F48158C82FCF7082958F7024
S11303700E941E018C2F0E941E010CC0623051F499
S11303808154C82FCF7082958F700E941E018C2FCC
S11303900E941E01CF910895CF93DF93FC019B012E
S11303A0CB0164E670E00E944C02605D6083CAE0A9
S11303B0D0E0C901BE010E944C02282FCB01BE012E
S11303C00E944C02805D8183205D22831382DF9131
S11303D0CF9108950E94A90081E680930B010E94A9
S11303E0BC00813011F00E94B40061E08AE091E029
S11303F00E94D4000E94B400089561E080EA96E867
S11304000E9453000E94300161E081E00E94B0012B
S113041084E091E00E949A0161E086E00E94B001CC
S113042087E091E00E949A018AB184608AB92FEF33
S113043083ED90E3215080409040E1F700C000003C
S11304400E94EA018BB18B7F8BB92FEF83ED90E390
S1130450215080409040E1F700C0000060910A0103
S113046070E08CE091E00E94CC016FEF70E080E0DE
S113047091E00E94CC0162E081E00E94B0018CE036
S113048091E00E949A0180E390E00E949A0161E069
S113049086E00E94B001CBCF97FB072E16F40094A0
S11304A007D077FD09D00E947F0207FC05D03EF4F7
S11304B0909581959F4F0895709561957F4F08950C
S11304C0052E97FB1EF400940E94770257FD07D077
S11304D00E94930207FC03D04EF40C9477025095CB
S11304E04095309521953F4F4F4F5F4F089590951C
S11304F08095709561957F4F8F4F9F4F0895AA1BEC
S1130500BB1B51E107C0AA1FBB1FA617B70710F0FA
S1130510A61BB70B881F991F5A95A9F7809590952C
S1130520BC01CD010895A1E21A2EAA1BBB1BFD013B
S11305300DC0AA1FBB1FEE1FFF1FA217B307E407BE
S1130540F50720F0A21BB30BE40BF50B661F771F16
S1130550881F991F1A9469F76095709580959095F6
S11105609B01AC01BD01CF010895F894FFCFBB
S10D056E30303000533100533200E6
S9030000FC
