:100000000C9434000C9446000C9446000C9446006A
:100010000C9446000C9446000C9446000C94460048
:100020000C9446000C9446000C9446000C94460038
:100030000C9446000C9446000C9446000C94460028
:100040000C9446000C9446000C9446000C94460018
:100050000C9446000C9446000C9446000C94460008
:100060000C9474000C94460011241FBECFEFD8E00E
:10007000DEBFCDBF21E0A0E0B1E001C01D92A13004
:10008000B207E1F70E9454000C94A7000C94000002
:1000900097B19F7C97B990E0880F991F8093BA0021
:1000A00085E48093BC0008958AB180628AB98BB1DF
:1000B0008F7D8BB980E30E94480078948091000185
:1000C0008235E1F78BB180628BB92FEF83ED90E33E
:1000D000215080409040E1F700C0000010920001E4
:1000E0008BB18F7D8BB9EACF1F920F920FB60F9213
:1000F00011248F93EF93FF938091B900887F80370D
:1001000049F018F4803631F015C0803849F0803954
:1001100039F010C0ECEBF0E08081806880830FC084
:100120008091BB0080930001ECEBF0E0808180685F
:10013000808305C0ECEBF0E0808180698083FF91D3
:10014000EF918F910F900FBE0F901F901895F8941C
:02015000FFCFDF
:00000001FF
